{
  "contractName": "JurStatus",
  "abi": [
    {
      "inputs": [],
      "payable": false,
      "stateMutability": "nonpayable",
      "type": "constructor"
    },
    {
      "anonymous": false,
      "inputs": [
        {
          "indexed": false,
          "internalType": "address",
          "name": "statusHolder",
          "type": "address"
        },
        {
          "indexed": false,
          "internalType": "bool",
          "name": "newState",
          "type": "bool"
        },
        {
          "indexed": false,
          "internalType": "uint256",
          "name": "timestamp",
          "type": "uint256"
        }
      ],
      "name": "StateChanged",
      "type": "event"
    },
    {
      "anonymous": false,
      "inputs": [
        {
          "indexed": false,
          "internalType": "address",
          "name": "statusHolder",
          "type": "address"
        },
        {
          "indexed": false,
          "internalType": "uint256",
          "name": "activationTime",
          "type": "uint256"
        },
        {
          "indexed": false,
          "internalType": "string",
          "name": "statusType",
          "type": "string"
        }
      ],
      "name": "StatusAdded",
      "type": "event"
    },
    {
      "constant": true,
      "inputs": [
        {
          "internalType": "address",
          "name": "",
          "type": "address"
        }
      ],
      "name": "status",
      "outputs": [
        {
          "internalType": "uint256",
          "name": "activationTime",
          "type": "uint256"
        },
        {
          "internalType": "bool",
          "name": "isActive",
          "type": "bool"
        },
        {
          "internalType": "string",
          "name": "statusType",
          "type": "string"
        }
      ],
      "payable": false,
      "stateMutability": "view",
      "type": "function"
    },
    {
      "constant": true,
      "inputs": [],
      "name": "statusCount",
      "outputs": [
        {
          "internalType": "uint256",
          "name": "",
          "type": "uint256"
        }
      ],
      "payable": false,
      "stateMutability": "view",
      "type": "function"
    },
    {
      "constant": true,
      "inputs": [
        {
          "internalType": "uint256",
          "name": "",
          "type": "uint256"
        }
      ],
      "name": "statusLists",
      "outputs": [
        {
          "internalType": "uint256",
          "name": "activationTime",
          "type": "uint256"
        },
        {
          "internalType": "bool",
          "name": "isActive",
          "type": "bool"
        },
        {
          "internalType": "string",
          "name": "statusType",
          "type": "string"
        }
      ],
      "payable": false,
      "stateMutability": "view",
      "type": "function"
    },
    {
      "constant": true,
      "inputs": [
        {
          "internalType": "uint256",
          "name": "",
          "type": "uint256"
        }
      ],
      "name": "statusTypes",
      "outputs": [
        {
          "internalType": "string",
          "name": "",
          "type": "string"
        }
      ],
      "payable": false,
      "stateMutability": "view",
      "type": "function"
    },
    {
      "constant": false,
      "inputs": [
        {
          "internalType": "address",
          "name": "_statusHolder",
          "type": "address"
        },
        {
          "internalType": "uint256",
          "name": "_statusType",
          "type": "uint256"
        }
      ],
      "name": "addJurStatus",
      "outputs": [],
      "payable": false,
      "stateMutability": "nonpayable",
      "type": "function"
    },
    {
      "constant": false,
      "inputs": [
        {
          "internalType": "address",
          "name": "_statusHolder",
          "type": "address"
        },
        {
          "internalType": "bool",
          "name": "_newState",
          "type": "bool"
        }
      ],
      "name": "changeState",
      "outputs": [],
      "payable": false,
      "stateMutability": "nonpayable",
      "type": "function"
    },
    {
      "constant": false,
      "inputs": [
        {
          "internalType": "string",
          "name": "_statusType",
          "type": "string"
        }
      ],
      "name": "addStatusType",
      "outputs": [],
      "payable": false,
      "stateMutability": "nonpayable",
      "type": "function"
    },
    {
      "constant": true,
      "inputs": [],
      "name": "getStatusListLength",
      "outputs": [
        {
          "internalType": "uint256",
          "name": "",
          "type": "uint256"
        }
      ],
      "payable": false,
      "stateMutability": "view",
      "type": "function"
    },
    {
      "constant": true,
      "inputs": [
        {
          "internalType": "uint256",
          "name": "index",
          "type": "uint256"
        }
      ],
      "name": "getStatusListItem",
      "outputs": [
        {
          "internalType": "uint256",
          "name": "",
          "type": "uint256"
        },
        {
          "internalType": "bool",
          "name": "",
          "type": "bool"
        },
        {
          "internalType": "string",
          "name": "",
          "type": "string"
        }
      ],
      "payable": false,
      "stateMutability": "view",
      "type": "function"
    }
  ],
  "bytecode": "0x608060405234801561001057600080fd5b50600080546001600160a01b03191633179055610ecb806100326000396000f3fe608060405234801561001057600080fd5b50600436106100935760003560e01c8063645b8b1b11610066578063645b8b1b146101b5578063b57bb11d146101db578063bf36436214610281578063c1df31621461029e578063eccc2cba146102a657610093565b80630d062d331461009857806311d92010146100c857806317a346e6146100f457806337cb4e2c1461019b575b600080fd5b6100c6600480360360408110156100ae57600080fd5b506001600160a01b0381351690602001351515610338565b005b6100c6600480360360408110156100de57600080fd5b506001600160a01b03813516906020013561051f565b6101116004803603602081101561010a57600080fd5b50356108a9565b604051808481526020018315151515815260200180602001828103825283818151815260200191508051906020019080838360005b8381101561015e578181015183820152602001610146565b50505050905090810190601f16801561018b5780820380516001836020036101000a031916815260200191505b5094505050505060405180910390f35b6101a361096b565b60408051918252519081900360200190f35b610111600480360360208110156101cb57600080fd5b50356001600160a01b0316610971565b6100c6600480360360208110156101f157600080fd5b81019060208101813564010000000081111561020c57600080fd5b82018360208201111561021e57600080fd5b8035906020019184600183028401116401000000008311171561024057600080fd5b91908080601f0160208091040260200160405190810160405280939291908181526020018383808284376000920191909152509295506109ec945050505050565b6101116004803603602081101561029757600080fd5b5035610ac6565b6101a3610c19565b6102c3600480360360208110156102bc57600080fd5b5035610c77565b6040805160208082528351818301528351919283929083019185019080838360005b838110156102fd5781810151838201526020016102e5565b50505050905090810190601f16801561032a5780820380516001836020036101000a031916815260200191505b509250505060405180910390f35b6000546001600160a01b0316331461038d576040805162461bcd60e51b815260206004820152601360248201527220b1b1b2b9b9903737ba1033b930b73a32b21760691b604482015290519081900360640190fd5b6001600160a01b0382166103e8576040805162461bcd60e51b815260206004820152601e60248201527f506c6561652070726f7669646520612076616c696420616464726573732e0000604482015290519081900360640190fd5b6001600160a01b03821660009081526003602052604090205461043c5760405162461bcd60e51b8152600401808060200182810382526023815260200180610e746023913960400191505060405180910390fd5b6001600160a01b03821660009081526003602052604090206001015460ff16151581151514156104b3576040805162461bcd60e51b815260206004820152601d60248201527f416c726561647920696e207468652073696d696c61722073746174652e000000604482015290519081900360640190fd5b6001600160a01b038216600081815260036020908152604091829020600101805485151560ff1990911681179091558251938452908301524282820152517fb965fe859adbfcaf277bb9d21a5de534aa40f5a06a58dbf224de25d789b063a99181900360600190a15050565b6000546001600160a01b03163314610574576040805162461bcd60e51b815260206004820152601360248201527220b1b1b2b9b9903737ba1033b930b73a32b21760691b604482015290519081900360640190fd5b6001600160a01b0382166105cf576040805162461bcd60e51b815260206004820152601f60248201527f506c656173652070726f7669646520612076616c696420616464726573732e00604482015290519081900360640190fd5b6040518060600160405280428152602001600115158152602001600183815481106105f657fe5b600091825260209182902001805460408051601f60026000196101006001871615020190941693909304928301859004850281018501909152818152928301828280156106845780601f1061065957610100808354040283529160200191610684565b820191906000526020600020905b81548152906001019060200180831161066757829003601f168201915b5050509190925250506001600160a01b038316600090815260036020908152604091829020835181558382015160018201805460ff19169115159190911790559183015180516106da9260028501920190610d1d565b5050506001600160a01b038216600090815260036020819052604082206002805460018082018084559583905283547f405787fa12a823e0f2b7631cc41b3ba8828b3321ca811111fa75cd3aa3bb5ace92909502918201948555808401547f405787fa12a823e0f2b7631cc41b3ba8828b3321ca811111fa75cd3aa3bb5acf8301805460ff191660ff909216151591909117905582840180549495946107b4947f405787fa12a823e0f2b7631cc41b3ba8828b3321ca811111fa75cd3aa3bb5ad09094019391926101009082161502600019011604610d9b565b505060048054600190810190915580547fc4d9fcc4d32e8979ac4dd0d6eebc63fbf139c5419a5184ec6cf7b2d0f876024b9350859250429190859081106107f757fe5b6000918252602091829020604080516001600160a01b038716815293840185905260609084018181529190920180546002600019610100600184161502019091160492840183905292916080830190849080156108955780601f1061086a57610100808354040283529160200191610895565b820191906000526020600020905b81548152906001019060200180831161087857829003601f168201915b505094505050505060405180910390a15050565b600281815481106108b657fe5b6000918252602091829020600391909102018054600180830154600280850180546040805161010096831615969096026000190190911692909204601f810188900488028501880190925281845293965060ff909116949192918301828280156109615780601f1061093657610100808354040283529160200191610961565b820191906000526020600020905b81548152906001019060200180831161094457829003601f168201915b5050505050905083565b60045481565b60036020908152600091825260409182902080546001808301546002808501805488516101009582161595909502600019011691909104601f8101879004870284018701909752868352929560ff909116949192918301828280156109615780601f1061093657610100808354040283529160200191610961565b6000546001600160a01b03163314610a41576040805162461bcd60e51b815260206004820152601360248201527220b1b1b2b9b9903737ba1033b930b73a32b21760691b604482015290519081900360640190fd5b8051610a7e5760405162461bcd60e51b8152600401808060200182810382526026815260200180610e4e6026913960400191505060405180910390fd5b600180548082018083556000929092528251610ac1917fb10e2d527612073b26eecdfd717e6a320cf44b4afac2b0732d9fcbe2b7fa0cf601906020850190610d1d565b505050565b6000805481906060906001600160a01b03163314610b21576040805162461bcd60e51b815260206004820152601360248201527220b1b1b2b9b9903737ba1033b930b73a32b21760691b604482015290519081900360640190fd5b610b29610e10565b60028581548110610b3657fe5b6000918252602091829020604080516060810182526003939093029091018054835260018082015460ff161515848601526002808301805485516101009482161594909402600019011691909104601f8101879004870283018701855280835294959294938601939192909190830182828015610bf45780601f10610bc957610100808354040283529160200191610bf4565b820191906000526020600020905b815481529060010190602001808311610bd757829003601f168201915b5050509190925250508151602083015160409093015190989297509550909350505050565b600080546001600160a01b03163314610c6f576040805162461bcd60e51b815260206004820152601360248201527220b1b1b2b9b9903737ba1033b930b73a32b21760691b604482015290519081900360640190fd5b506002545b90565b60018181548110610c8457fe5b600091825260209182902001805460408051601f6002600019610100600187161502019094169390930492830185900485028101850190915281815293509091830182828015610d155780601f10610cea57610100808354040283529160200191610d15565b820191906000526020600020905b815481529060010190602001808311610cf857829003601f168201915b505050505081565b828054600181600116156101000203166002900490600052602060002090601f016020900481019282601f10610d5e57805160ff1916838001178555610d8b565b82800160010185558215610d8b579182015b82811115610d8b578251825591602001919060010190610d70565b50610d97929150610e33565b5090565b828054600181600116156101000203166002900490600052602060002090601f016020900481019282601f10610dd45780548555610d8b565b82800160010185558215610d8b57600052602060002091601f016020900482015b82811115610d8b578254825591600101919060010190610df5565b604051806060016040528060008152602001600015158152602001606081525090565b610c7491905b80821115610d975760008155600101610e3956fe53746174757320747970652063616e6e6f7420626520616e20656d70747920737472696e672e41646472657373206973206e6f742061204a75722053746174757320686f6c6465722ea265627a7a72315820d3f965dc54d25a8efdb5a28aedd633fd9b6f0e4e59f0e0d3b6f937c3c5993dd464736f6c63430005100032",
  "source": "pragma solidity >=0.5.1 <0.7.0;\r\n\r\ncontract JurStatus {\r\n    /** The Jur admin address */\r\n    address owner;\r\n\r\n    /**\r\n    Struct defining the values of a status.\r\n    activationTime - The timestamp from which the status will be valid\r\n    isActive - booleans state depicting if a status is currently valid\r\n    statusType - The type of the status complementing the bussiness logic\r\n    */\r\n    struct Status {\r\n        uint activationTime;\r\n        bool isActive;\r\n        string statusType;\r\n    }\r\n\r\n    /** Dynamic array holding the status types */\r\n    string[] public statusTypes;\r\n    \r\n    /** Dynamic array holding all status created */\r\n    Status[] public statusLists;\r\n\r\n    /** Mapping between the address of the Jur Status holders and their properties */\r\n    mapping(address  => Status) public status;\r\n\r\n    /** Total count of Jur Statuses. */\r\n    uint public statusCount;\r\n\r\n    event StateChanged(address statusHolder, bool newState, uint timestamp);\r\n    event StatusAdded(address statusHolder, uint activationTime, string statusType);\r\n\r\n    modifier onlyOwner() {\r\n        require(msg.sender == owner, \"Access not granted.\");\r\n        _;\r\n    }\r\n\r\n    constructor()\r\n    public {\r\n        owner = msg.sender;\r\n    }\r\n\r\n    /**\r\n    @dev addJurStatus - function to let the Jur admin add new address as a Jur Status, thus\r\n    validating it's license which can be verified on the blockchain.\r\n    @param _statusHolder - The address which will hold the Jur Status.\r\n    @param _statusType - The position of the value from the statusTypes array signifying the\r\n    status type.\r\n    */\r\n    function addJurStatus(\r\n    address _statusHolder,\r\n    uint _statusType\r\n    ) public\r\n    onlyOwner {\r\n        require(_statusHolder != address(0), \"Please provide a valid address.\");\r\n        status[_statusHolder] = Status(now, true, statusTypes[_statusType]);\r\n        statusLists.push(status[_statusHolder]);\r\n        statusCount++;\r\n\r\n        emit StatusAdded(_statusHolder, now, statusTypes[_statusType]);\r\n    }\r\n\r\n    /**\r\n    @dev changeState - function to let the Jur admin change the state of a status.\r\n    @param _statusHolder - The address holding the Jur Status.\r\n    @param _newState -  Boolean status to update.\r\n    */\r\n    function changeState(\r\n    address _statusHolder,\r\n    bool _newState\r\n    ) public\r\n    onlyOwner {\r\n        require(_statusHolder != address(0), \"Pleae provide a valid address.\");\r\n        require(status[_statusHolder].activationTime != 0, \"Address is not a Jur Status holder.\");\r\n        require(status[_statusHolder].isActive != _newState, \"Already in the similar state.\");\r\n        status[_statusHolder].isActive = _newState;\r\n\r\n        emit StateChanged(_statusHolder, _newState, now);\r\n    }\r\n\r\n    /**\r\n    @dev addStatusType - function to let an admin add status types to support the bussiness\r\n    logic.\r\n    @param _statusType - The new status type.\r\n    */\r\n    function addStatusType(\r\n    string memory _statusType\r\n    ) public\r\n    onlyOwner {\r\n        require(bytes(_statusType).length != 0, \"Status type cannot be an empty string.\");\r\n        statusTypes.push(_statusType);\r\n    }\r\n\r\n\r\n    /** To get the list of all status I added the following\r\n     * currently solidity does not support return of array except through an experimental feature {pragma experimental ABIEncoderV2;}\r\n     * which is not advisable for production due to known bugs..\r\n     * \r\n    @dev getStatusListLength - function to let an admin get all statusList length\r\n    */\r\n    function getStatusListLength() public onlyOwner view returns (uint)\r\n      {\r\n        return statusLists.length;\r\n    }\r\n    \r\n    \r\n    /**\r\n    @dev getStatusListItem - function to let an admin get statusList item from the index we obtained above\r\n    */\r\n    function getStatusListItem(uint index) public onlyOwner view returns (uint, bool, string memory)\r\n      {\r\n       Status memory statusItem = statusLists[index];\r\n       return(statusItem.activationTime, statusItem.isActive, statusItem.statusType);\r\n    }\r\n}\r\n",
  "sourcePath": "C:/Users/DELL/Documents/jur/Jur-Status/contracts/JurStatus.sol",
  "compiler": {
    "name": "solc",
    "version": "0.5.16+commit.9c3226ce.Emscripten.clang"
  },
  "schemaVersion": "3.3.3",
  "updatedAt": "2021-01-06T12:01:21.950Z",
  "networkType": "ethereum",
  "devdoc": {
    "methods": {
      "addJurStatus(address,uint256)": {
        "details": "addJurStatus - function to let the Jur admin add new address as a Jur Status, thus validating it's license which can be verified on the blockchain.",
        "params": {
          "_statusHolder": "- The address which will hold the Jur Status.",
          "_statusType": "- The position of the value from the statusTypes array signifying the status type."
        }
      },
      "addStatusType(string)": {
        "details": "addStatusType - function to let an admin add status types to support the bussiness logic.",
        "params": {
          "_statusType": "- The new status type."
        }
      },
      "changeState(address,bool)": {
        "details": "changeState - function to let the Jur admin change the state of a status.",
        "params": {
          "_newState": "-  Boolean status to update.",
          "_statusHolder": "- The address holding the Jur Status."
        }
      },
      "getStatusListItem(uint256)": {
        "details": "getStatusListItem - function to let an admin get statusList item from the index we obtained above"
      },
      "getStatusListLength()": {
        "details": "getStatusListLength - function to let an admin get all statusList length"
      }
    }
  },
  "userdoc": {
    "methods": {
      "getStatusListLength()": {
        "notice": "To get the list of all status I added the following currently solidity does not support return of array except through an experimental feature {pragma experimental ABIEncoderV2;} which is not advisable for production due to known bugs.. \r"
      }
    }
  }
}